:020000040000FA
:060000000A128A110C280F
:10000800FE00030EF2000A08F3000A128A111528EE
:100018000A128A110F28F801F90183010A128A11BC
:1000280064280B1C182819282B2883120313061C74
:100038001E281F2824280130F1007108F8070B102A
:10004800861C272828282B280130F8020B10831239
:1000580003138C1D3028312842288C110A128A116A
:1000680090200A128A11F1007108F9008312031313
:1000780008080A128A11A0200A128A1173088A0035
:10008800720E8300FE0E7E0E0900203083160313C5
:1000980085000330860087018801831603178801CD
:1000A800890183120313850187018801C8308B00F9
:1000B8000830831603138C0003309600F8010800FB
:1000C8000A128A1149200A128A11F401F501F6016F
:1000D80024300A128A117A200A128A1178088312A7
:1000E8000313880072280A128A110C28F700831655
:1000F80003138712771D81288228862876089400A2
:1001080087158A287408760494008711770875047F
:1001180083120313940008000A128A1199200A1204
:100128008A11831203131308080083160313141C7F
:100138009E289F2899280800F0007008831203134E
:040148009300080018
:04400E00D420FF3F7C
:00000001FF
