:020000040000FA
:060000000A128A110C280F
:10000800FE00030EF1000A08F2000A128A111328F2
:100018000A128A110F2883010A128A1147280B1C19
:100028001628172828280B1083120313061C1D28CE
:100038001E2822280130F00070088707861C252812
:10004800262828280130870272088A00710E83004A
:10005800FE0E7E0E09008316031385010330860009
:100068008701880183160317880189018312031306
:1000780088018701880188308B00831603138C015F
:100088000330960008000A128A112F200A128A11DA
:100098000D30F400FB30F300F30B5028F40B50281C
:0A00A80055284C280A128A110C2872
:04400E00D120FF3F7F
:00000001FF
