:020000040000FA
:060000000A128A110C280F
:10000800FE00030EF1000A08F2000A128A1168289D
:100018000A128A110F28F501F601F70183010A1265
:100028008A1116280A128A1147200A128A111A30D0
:10003800F400F830F300F30B1F28F40B1F2800001E
:100048000A128A117D200A128A1121307702031CB4
:100058002E282F28342804308312031388001B28E5
:1000680010307702031C39283A283F2802308312BF
:10007800031388001B2801308312031388001B28F0
:100088000A128A110C280930831603138500860189
:100098008701880101308316031788008901C03061
:1000A8008B004030831603138C00413083120313F6
:1000B8009F001030831603139F00831203138501DA
:1000C8008601870188010800831203130C1F6D281D
:1000D8006E2876280C131E08F0007008F700F60149
:1000E8001E08870072088A00710E8300FE0E7E0EBD
:1000F8000900831203139F188228832884289F14D9
:020108000800ED
:04400E00D120FF3F7F
:00000001FF
