:020000040000FA
:060000000A128A110C280F
:10000800FE00030EF2000A08F3000A128A115128B2
:100018000A128A110F28F801F90183010A128A11BC
:1000280015280A128A1176200A128A11F401F5019C
:10003800F60124300A128A1197200A128A111A30FE
:1000480083120313A100F730A000A00B2928A10BED
:1000580029282E280A128A11B6200A128A1121305C
:100068007902031C382839283E28043083120313E8
:100078008800232810307902031C43284428492883
:1000880002308312031388002328013083120313DC
:10009800880023280A128A110C28831203130C1FC4
:1000A800562857285C280C131E08F1007108F9001F
:1000B8008C1D5F2860286F288C110A128A11AD20C8
:1000C8000A128A11F1007108F80079080A128A11D7
:1000D800C5200A128A1173088A00720E8300FE0E68
:1000E8007E0E0900293083160313850086018701D7
:1000F800880101308316031788008901C0308B00FE
:100108004830831603138C004130831203139F0079
:100118001030831603139F00831203138501860191
:10012800870188010800F700831603138712771DDB
:100138009E289F28A328760894008715A728740866
:1001480076049400871177087504831203139400CA
:1001580008000A128A11BE200A128A118312031398
:1001680013080800831203139F18BB28BC28BD2856
:100178009F14080083160313141CC328C428BE2820
:0E0188000800F00070088312031393000800B3
:04400E00D420FF3F7C
:00000001FF
