:020000040000FA
:060000000A128A110C280F
:10000800FE00030EF0000A08F1000A128A11B52C4E
:100018000A128A110F28FB0183120313CF01D001A2
:10002800D10183010A128A11A12983120313B40092
:100038002630AC002C08AF008A2925303706031972
:100048002628272833283708AC00340884002C08D1
:10005800831380000130AC002C08B4078A29B5014D
:10006800B601B101250884000A128A113D220A123C
:100078008A110A128A11A3240A128A11031C45281C
:100088004628862883120313B501B6010A30F20008
:100098000030F300831203133608F5003508F40026
:1000A8000A128A11FD230A128A1173088312031394
:1000B800B6007208B500250884000A128A113D228C
:1000C8000A128A11D03EAC00FF3003180030AD0090
:1000D8002C08B5070318B60A2D08B6070130AC007E
:1000E8002C08A507250884000A128A113D220A1245
:1000F8008A110A128A11A3240A128A110318852860
:1001080086284A28013083120313A507FF302507E4
:1001180084000A128A113D220A128A11B700AC0023
:10012800AD012D08003A03199A288A292C08003AAB
:1001380003199C29643A0319A5280D3A0319A5281F
:100148008A292F08840083130008B200840A000853
:10015800B3000230AC002C08AF07B31FB428B52891
:10016800BE280330AC002C08B104B209B309B20AA6
:100178000319B30AB701B70A3708AC002C07013EC8
:1001880084000A128A113D220A128A11AD000A124D
:100198008A113D220A128A11AE002E083302031D6D
:1001A800D7282D0832020318DA28DB28DC28E628AD
:1001B8000130AC002C08B70705303706031DE528C9
:1001C800E628C028350836040319EB28EC28F82857
:1001D800310803390319F128F228F828FF30B50748
:1001E8000318B60AFF30B6073608803A803C031D6C
:1001F800FF28350837020318022903290F2983121B
:1002080003133708AC00AD012C08B5022D08031CF8
:10021800B603B602132983120313B501B6013508D4
:10022800360403191829192930292030AC0034085C
:1002380084002C08831380000130AC002C08B4071C
:10024800FF30B5070318B60AFF30B607350836047D
:10025800031D2F2930291929310803390319352994
:10026800362941292D30AC00340884002C0883132A
:1002780080000130AC002C08B4073708AC002C080B
:10028800B00081290A30A0000030A1003008AC007D
:100298002C07013E84000A128A113D220A128A1193
:1002A800F2000A128A113D220A128A11F300330859
:1002B800F5003208F4000A128A113F230A128A1143
:1002C800730883120313A3007208A2000A128A118A
:1002D800C1230A128A11831203132008303EAD008D
:1002E8002D08B7003708AC00340884002C088313A5
:1002F80080000130AC002C08B407FF30AC002C089B
:10030800B007300A031D89298A2946290130A50723
:10031800FF30250784000A128A113D220A128A1129
:10032800AC002C08B7003708031D9B299C292128FD
:10033800340884008313800108000A128A1190246B
:100348000A128A110A128A11FA220A128A11F20171
:10035800F301F40120300A128A117A240A128A1150
:1003680083120313061000300A128A11D3240A12CA
:100378008A110A128A11C3240A128A1183120313DA
:10038800B8003808D10006148610FF300A128A1106
:10039800D3240A128A110A128A11C3240A128A1152
:1003A80083120313B8003808D0008614061164308D
:1003B8000A128A11D3240A128A110A128A11C32432
:1003C8000A128A1183120313B8003808CF000615E1
:1003D800F601F60A01300A128A1122240A128A1139
:1003E8004030F6008030F7000A128A11B4220A124F
:1003F8008A11F601F60A02300A128A1122240A1218
:100408008A111F3083120313B8003808A500510859
:10041800B900BA013908A6003A08A7005008BB007D
:10042800BC013B08A8003C08A9004F08BD00BE015C
:100438003D08AA003E08AB003F300A128A11192075
:100448000A128A113F30F6000030F7000A128A11AA
:10045800B4220A128A11B4290A128A110C28FF1B25
:100468003D2A83137F1883170008840A0319FF0A9B
:10047800080002308A000408840A82070034013424
:1004880000340A34003464340034E834033410345B
:1004980027347734773477342E3465346C346534C4
:1004A8006334743472346F3453346F346D34653458
:1004B8002E3463346F346D340034203425343334AF
:1004C80069342034203420342534333469342034DA
:1004D8002034203425343334693400344C344334E4
:1004E800443420344C3469346234723461347234A4
:1004F8007934203466346F347234003441344434EF
:100508004334203443344F344E345434203420346C
:10051800543445344D3450340034443465347634DE
:1005280065346C346F347034653464342034423448
:100538007934003465346C3465346334743472341B
:100548006F3453346F346D34653400344D34503463
:100558004C34413442342034583443343834003431
:1005680083120313A001A101DD2A20087607F900F0
:100578007708F8000318F80AA01FC32AF8037808B8
:10058800FA007A0883120313FF00790884000A121C
:100598008A1133220A128A110A128A1146240A126F
:1005A8008A11013083120313A0070318A10A00302F
:1005B800A10720087607F9007708F8000318F80A59
:1005C800A01FE72AF8037808FA007A0883120313B1
:1005D800FF00790884000A128A1133220A128A114C
:1005E800003A031DF82AF92AB92A080000300A122D
:1005F8008A1183230A128A113430F700F130F60089
:10060800F60B042BF70B042B092B03300A128A1163
:1006180060240A128A110D30F700FB30F600F60B41
:10062800132BF70B132B182B03300A128A11602493
:100638000A128A111D30F7009130F600F60B222BB2
:10064800F70B222B03300A128A1160240A128A112E
:1006580038300A128A1160240A128A110C300A12E0
:100668008A1160240A128A1106300A128A1160243B
:100678000A128A110800F701F801720873040319B5
:10068800462B472B7E2BF901F90A552B0130031015
:10069800F20DF30DFF3E031D4B2B0130F6007608DB
:1006A800F907F31F582B592B4A2B01300310F70D6C
:1006B800F80DFF3E031D5A2B73087502031D662BA8
:1006C80072087402031C692B6A2B712B7208F402DE
:1006D8007308031CF503F502771401300310F30CBB
:1006E800F20CFF3E031D722B0130F902031D7D2B16
:1006F8007E2B592B7808F3007708F2000800F200E7
:10070800721C872B882B8C2B8312031308148F2BB6
:10071800831203130810F21C922B932B952B881429
:10072800962B8810721D992B9A2B9C2B08159D2BA4
:100738000811F21DA02BA12BA32B8815A42B88111F
:10074800721EA72BA82BAA2B0816AB2B0812F21E79
:10075800AE2BAF2BB12B8816B22B8812721FB52B7C
:10076800B62BB82B0817B92B0813F21FBC2BBD2BBF
:10077800BF2B8817C02B8813080083120313200887
:1007880021040319C82BC92BF82BA401A40AD72BC1
:1007980001300310A00DA10DFF3E031DCD2B01302C
:1007A800FA007A08A407A11FDA2BDB2BCC2B21082F
:1007B8002302031DE12B20082202031CE42BE52B56
:1007C800EB2B2008A2022108031CA303A30201307B
:1007D8000310A10CA00CFF3E031DEC2B0130A4025A
:1007E800031DF72BF82BDB2B2308A1002208A00000
:1007F8000800F601F701721C022C032C092C74085E
:10080800F6070318F70A7508F70701300310F40D07
:10081800F50DFF3E031D0A2C01300310F30CF20CFA
:10082800FF3E031D112C72087304031D1C2C1D2C84
:10083800FF2B7708F3007608F2000800F800780329
:10084800031D272C282C342C76087F3EF7007708C8
:10085800F90079080A128A1160240A128A11452CB3
:1008680002307806031D392C3A2C452C7608BF3EF9
:10087800F7007708F90079080A128A1160240A1229
:100888008A110800F50083120313891475080A12E7
:100898008A1183230A128A118312031309150B3054
:1008A800F4006230F300F30B572CF40B572C0000C4
:1008B8008312031309110800F5008312031389102A
:1008C80075080A128A1183230A128A1183120313E4
:1008D80009150B30F4006230F300F30B712CF40BA4
:1008E800712C00008312031309110800F500831608
:1008F80003138712751D812C822C862C7408940092
:1009080087158A2C7208740494008711750873047B
:1009180083120313940008008316031385018601CC
:10092800880189018316031788018901C0308B006B
:100938008312031385010F30860088010800F30035
:10094800F2013A3073020318AA2CAB2CB32C3030C6
:100958007302031CB02CB12CB32CF201F20A720CF6
:100968000800831203138C1DBA2CBB2CBC2C8C11D1
:1009780071088A00700E8300FE0E7E0E09000A12AE
:100988008A11CC240A128A1183120313130808004F
:1009980083160313141CD12CD22CCC2C0800F20083
:0A09A8007208831203139300080085
:04400E00D420FF3F7C
:00000001FF
