:020000040000FA
:060000000A128A110C280F
:10000800FE00030EF1000A08F2000A128A154C28B5
:100018000A128A110F288313603084006D300A1683
:100028008A11B9270A128A11A0308400B1300A1641
:100038008A11B9270A128A1183010A128A15BB2C60
:100048008312031329088039AE002E08B30029084B
:10005800AE002E07AF002F08B900A81F3428352896
:1000680036283914390803193A283B284A28390A06
:10007800031D3F28402848280030A9000030A80068
:100088000030A7000030A600A81752280030A900A9
:100098000030A8000030A7000030A6002D088039E5
:1000A800AE002E08B3062D08AE002E07AF002F08AD
:1000B800B800AC1F60286128622838143808031972
:1000C800662867287628380A031D6B286C28742848
:1000D8000030AD000030AC000030AB000030AA00AA
:1000E800AC177E280030AD000030AC000030AB000B
:1000F8000030AA003808031982288328882839087C
:10010800031D8728882891280030A9000030A800FE
:100118000030A7000030A600842B2608AE002E0869
:10012800F3002C080A128A15CA200A128A117408C8
:1001380083120313BF007308BE003E08AE00AF0170
:10014800B001B1013108B7003008B6002F08B5007A
:100158002E08B4003F08AE00AF01B001B10131086C
:10016800BD003008BC002F08BB002E08BA002708C5
:10017800AE002E08F3002B080A128A15CA200A12AC
:100188008A11740883120313BF007308BE003E0867
:10019800AE00AF01B001B1012E08B4072F0803115A
:1001A8000318013E0319D928B507300803110318AD
:1001B800013E0319E028B607310803110318013E70
:1001C8000319E728B7073F08AE00AF01B001B10136
:1001D8002E08BA072F0803110318013E0319F52842
:1001E800BB07300803110318013E0319FC28BC079C
:1001F800310803110318013E03190329BD07280814
:10020800AE002E08F3002A080A128A15CA200A121C
:100218008A11740883120313BF007308BE003E08D6
:10022800AE00AF01B001B1012E08B4072F080311C9
:100238000318013E03192129B507300803110318D3
:10024800013E03192829B607310803110318013E96
:1002580003192F29B7073F08AE00AF01B001B1015C
:100268002E08BA072F0803110318013E03193D2968
:10027800BB07300803110318013E03194429BC07C2
:10028800310803110318013E03194B29BD07083033
:10029800AE000310B40DB50DB60DB70DAE0B4D295C
:1002A8002708AE002E08F3002A080A128A15CA2069
:1002B8000A128A11740883120313BF007308BE0060
:1002C8003E08AE003F08AF00B001B1012E08B407E8
:1002D8002F0803110318013E03197329B5073008C5
:1002E80003110318013E03197A29B60731080311CF
:1002F8000318013E03198129B7072608AE002E0806
:10030800F3002B080A128A15CA200A128A117408E7
:1003180083120313BF007308BE003E08AE003F08F7
:10032800AF00B001B1012E08B4072F08031103185C
:10033800013E0319A029B507300803110318013E2F
:100348000319A729B607310803110318013E031939
:10035800AE29B7070830AE000310B40DB50DB60DC1
:10036800B70DAE0BB0292608AE002E08F3002A08F8
:100378000A128A15CA200A128A11740883120313F2
:10038800BF007308BE003E08AE003F08AF00B001D2
:10039800B1012E08B4072F0803110318013E0319F1
:1003A800D629B507300803110318013E0319DD29C2
:1003B800B607310803110318013E0319E429B707EA
:1003C8002708AE002E08F3002C080A128A15CA2046
:1003D8000A128A11740883120313BF007308BE003F
:1003E8003E08AE003F08AF00B001B1012E08BA07C1
:1003F8002F0803110318013E0319032ABB0730080D
:1004080003110318013E03190A2ABC073108031116
:100418000318013E0319112ABD072808AE002E084B
:10042800F3002B080A128A15CA200A128A117408C6
:1004380083120313BF007308BE003E08AE003F08D6
:10044800AF00B001B1012E08BA072F080311031835
:10045800013E0319302ABB07300803110318013E77
:100468000319372ABC07310803110318013E031981
:100478003E2ABD072808AE002E08F3002C080A12F1
:100488008A15CA200A128A11740883120313BF003E
:100498007308BE003E08AE003F08AF00B001B101CE
:1004A80008300310AE0DAF0DB00DB10DFF3E031DAA
:1004B800552A2E08BA072F0803110318013E0319FD
:1004C800662ABB07300803110318013E03196D2A79
:1004D800BC07310803110318013E0319742ABD072C
:1004E8003408AE003508AF003608B0003708B10050
:1004F80018300310B10CB00CAF0CAE0CFF3E031D4E
:100508007D2A2E08BA072F0803110318013E031984
:100518008E2ABB07300803110318013E0319952AD8
:10052800BC07310803110318013E03199C2ABD07B3
:100538000830AE000310B40DB50DB60DB70DAE0BF7
:100548009E2A39083807AE00AF01AF0D2E08823E4B
:10055800BE002F080318013EFF3EBF00D02A01301D
:10056800AE000310BA0DBB0DBC0DBD0DAE0BB52A08
:10057800B71FBF2AC02AC12A3A140130AE0003109F
:10058800B40DB50DB60DB70DAE0BC32AFF30BE07BF
:100598000318BF0AFF30BF07BC1FD32AD42AB32AC7
:1005A800B801B71FD82AD92AF52AFF303405AE007A
:1005B800FF303505AF00FF303605B0007F30370516
:1005C800B100310830042F042E040319EC2AED2A57
:1005D800F02AB801B80AF52A3A1CF32AF42AF52AAF
:1005E800ED2A38080319F92AFA2A2B2B0130BA0701
:1005F800003003180130BB07003003180130BC0776
:10060800003003180130BD073D1C0B2B0C2B2B2B86
:100618003A08AE003B08AF003C08B0003D08B10006
:100628000130B200310DB10CB00CAF0CAE0CB20BF6
:10063800162B3108BD003008BC002F08BB002E085F
:10064800BA000130BE070318BF0A0030BF073F08D1
:10065800803AFF0080307F02031D342BFF303E02BA
:10066800031C372B382B432B7F3083120313BD0019
:100678008030BC000030BB000030BA00782B8312F9
:1006880003133F08803AFF0080307F02031D4E2B82
:1006980001303E020318512B522B5E2B003083127F
:1006A8000313BD000030BC000030BB000030BA00AE
:1006B800B301782B831203133E08AE002E08B9004D
:1006C800FF30BA05FF30BB057F30BC050030BD05E3
:1006D800391C6F2B702B712BBC173908AE00031017
:1006E8002E0CAF002F08BD003308AE002E08BD0445
:1006F8003D08A9003C08A8003B08A7003A08A60046
:1007080008007608803983120313A0002008A80087
:100718007608A0002007A1002108AA00F51F952B44
:10072800962B972B2A142A0803199B2B9C2BAC2B4E
:100738002A0A031DA02BA12BA92B0030F60000309C
:10074800F5000030F4000030F300F517F601B42B83
:100758000030F6000030F5000030F4000030F300FF
:100768007A088039A0002008A9002908280603195A
:10077800BE2BBF2BC02B28177A08A0002007A1008A
:100788002108A900F91FC92BCA2BCB2B291429082A
:100798000319CF2BD02BE02B290A031DD42BD52BE3
:1007A800DD2B0030FA000030F9000030F80000308E
:1007B800F700F917FA01E82B0030FA000030F900C9
:1007C8000030F8000030F7002A0829020318ED2B42
:1007D800EE2B322C281FF12BF22BF62B8030A000A9
:1007E8002008A8062A08A0002008AB002908A000B5
:1007F8002008AA002B08A0002008A9007308A00060
:100808002008AB007708A0002008F3002B08A00000
:100818002008F7007408A0002008AB007808A000A2
:100828002008F4002B08A0002008F8007508A00094
:100838002008AB007908A0002008F5002B08A000CC
:100848002008F9007608A0002008AB007A08A0006C
:100858002008F6002B08A0002008FA00AB012908A0
:10086800A000A1012108A3002A082002A200031C5D
:10087800A3032308803AFF0080307F02031D462C23
:100888001A302202031C492C4A2C872C760875043E
:1008980074047304031D512C532C0130542C003064
:1008A80083120313A0002008AB000030F6000030CC
:1008B800F5000030F4000030F3002908A0002008FB
:1008C800AA008F2C2B1C692C6A2C732C2B08A000D7
:1008D8000310200C0138A1002108AB00752C03106F
:1008E800AB0C731C782C792C7A2CAB170130A00038
:1008F800760DF60CF50CF40CF30CA00B7C2C0130E7
:10090800A0002008AA078312031329082A02031C3F
:100918008E2C8F2C662C281B922C932CDE2C2A08CC
:10092800031D972C982CA12C0030F6000030F50000
:100938000030F4000030F3000C2E7708F307780835
:1009480003110318013E0319AA2CF40779080311AF
:100958000318013E0319B12CF5077A08031103188F
:10096800013E0319B82CF607761CBB2CBC2C922D23
:100978002B1CBF2CC02CC92C2B08A0000310200C4A
:100988000138A1002108AB00CB2C0310AB0C731C61
:10099800CE2CCF2CD02CAB170130A000760DF60C46
:1009A800F50CF40CF30CA00BD22C0130A00020089D
:1009B800AA07922D7608803AFF007A08803A7F02CB
:1009C800031DF02C79087502031DF02C78087402B9
:1009D800031DF02C770873020318F32CF42C4C2D0C
:1009E800FF30A000FF30A100FF30A200FF30A300BD
:1009F8007708A4007808A5007908A6007A08A70057
:100A08007308A4027408031C740F0B2D0C2DA50287
:100A18007508031C750F112D122DA6027608031CEC
:100A2800760F172D182DA7022408A00725080318EC
:100A3800250F1F2D202DA10726080318260F252D69
:100A4800262DA20727080318270AA3072308F6005C
:100A58002208F5002108F4002008F3008030A000E7
:100A68002008A806AB09AB0A2B08031D3C2D3D2D19
:100A78005A2D0130F307003003180130F407003015
:100A880003180130F507003003180130F6075A2D16
:100A98007708F3027808031C780FF4027908031C1E
:100AA800790FF5027A08031C7A0FF60276087504A6
:100AB80074047304031D612D622D8E2D2B08031DF4
:100AC800662D672D8E2D0030F6000030F5000030C1
:100AD800F4000030F3000C2E0130A0000310F30DD9
:100AE800F40DF50DF60DA00B722DAB1F7C2D7D2D91
:100AF8007E2D73142B1C812D822D852D0314AB0D97
:100B0800872D0310AB0D2A0803198B2D8C2D8E2DE4
:100B18000130AA02F51F912D922D702DA901AB1F4E
:100B2800962D972DA52D2B087F3903199C2D9D2DCA
:100B3800A02DA901A90AA52D731CA32DA42DA52DAF
:100B48009D2D29080319A92DAA2DDE2D0130F307A3
:100B5800003003180130F407003003180130F5079E
:100B6800003003180130F607761CBB2DBC2DDE2D96
:100B78007308A0007408A1007508A2007608A300F5
:100B88000130A400230DA30CA20CA10CA00CA40BF3
:100B9800C62D2308F6002208F5002108F4002008D5
:100BA800F3002A0A0319D92DDA2DDE2D0130A00011
:100BB8002008AA072A0A0319E22DE32DE82D2A089E
:100BC800031DE72DE82DF62D0030F6000030F50066
:100BD8000030F4000030F3002A08031DF42DF52D31
:100BE800F62DA8012A1CF92DFA2DFC2DF517002E3B
:100BF8007F30A0002008F5052A08A0000310200C6B
:100C0800A1002108F600A81F0A2E0B2E0C2EF6179D
:100C1800080083120313D2000A168A11C1270A1288
:100C28008A11D030F3000030F4000A128A153E20F1
:100C38000A128A113B30F3000030F4000A128A15B8
:100C48003E200A128A110A168A11D3270A128A111B
:100C5800D130F3000030F4000A128A153E200A123F
:100C68008A1183120313D001D1010030F300F4007C
:100C78000A128A1523210A128A1173088312031390
:100C8800C0005008443E84004008831380000130AF
:100C9800D0070318D10A0030D1075108803AFF0065
:100CA80080307F02031D5A2E05305002031C5D2E32
:100CB8005E2E392E0130F3000030F4000A128A1536
:100CC80023210A128A11730883120313C0004008F3
:100CD800C9000A168A11CA270A128A118312031335
:100CE800D301D401031483120313530D443E84002B
:100CF80083130008C0005308C1004107443E840024
:100D08000008C2005308C30043074A3E8400400855
:100D18008000840A420880000130D3070318D40AEF
:100D28000030D4075408803AFF0080307F02031D4A
:100D38009F2E03305302031CA22EA32E762E3A3088
:100D480083120313A9001C30A800C330A7001A306F
:100D5800A6004A08F3004B08F4000030F41BFF30EB
:100D6800F500F60001300A128A152A230A128A11A0
:100D7800760883120313AD007508AC007408AB0045
:100D88007308AA000A128A1124200A128A118312EF
:100D9800031352088400260883138000840A270856
:100DA8008000840A28088000840A290880003A30D4
:100DB800A9001C30A800C330A7001A30A6004C08B0
:100DC800F3004D08F4000030F41BFF30F500F60086
:100DD80001300A128A152A230A128A117608831208
:100DE8000313AD007508AC007408AB007308AA00C3
:100DF8000A128A1124200A128A1183120313520834
:100E0800043E8400260883138000840A2708800093
:100E1800840A28088000840A290880003A30A9003A
:100E28001C30A800C330A7001A30A6004E08F300F3
:100E38004F08F4000030F41BFF30F500F6000130D5
:100E48000A128A152A230A128A11760883120313B2
:100E5800AD007508AC007408AB007308AA000A124C
:100E68008A1124200A128A11831203135208083E99
:100E78008400260883138000840A27088000840AD7
:100E880028088000840A29088000080000307305BB
:100E980083120313A00000307405A100803075058B
:100EA800A2007F307605A300230822042104200431
:100EB800031D5F2F602F682F0030F6000030F5000B
:100EC8000030F4000030F30000307705A000003057
:100ED8007805A10080307905A2007F307A05A3004B
:100EE8002308220421042004031D7B2F7C2F842F38
:100EF8000030FA000030F9000030F8000030F70048
:100F0800F61F872F882FAC2F0030A0000030A100DB
:100F18000030A2008030A3007308A0027408031CEC
:100F2800740F972F982FA1027508031C750F9D2F1A
:100F38009E2FA2027608031C760FA32FA42FA302CC
:100F48002308F6002208F5002108F4002008F30021
:100F5800FA1FAF2FB02FD42F0030A0000030A1000F
:100F68000030A2008030A3007708A0027808031C94
:100F7800780FBF2FC02FA1027908031C790FC52F46
:100F8800C62FA2027A08031C7A0FCB2FCC2FA302FC
:100F98002308FA002208F9002108F8002008F700C1
:100FA8008030F6068030FA067A087602031DE62FAE
:100FB80079087502031DE62F78087402031DE62FD1
:100FC800770873020318E92FEA2FEC2F0310ED2F8F
:100FD80003140800F400F3013A3074020318F52FE3
:100FE800F62FFE2F30307402031CFB2FFC2FFE2F30
:100FF800F301F30A730C080008308A000408840A15
:101008008207003401340034003400340A340034D8
:10101800003400346434003400340034E8340334D9
:10102800003400341034273400340034A0348634BB
:1010380001340034403442340F3400348034963460
:10104800983400340034E134F53405340034CA34BB
:101058009A343B3425346C3475342E342534363484
:0A1068002E3436346C347534003435
:10107C000A168A11F3270A128A15730883120313AE
:10108C0093008C1D4A284B28472808008312031311
:10109C008C1E5128522857281A08F0007008E000BE
:1010AC008C1272088A00710E8300FE0E7E0E0900EF
:1010BC008316031385018601D830870088018901C6
:1010CC008316031788018901831203138501860196
:1010DC008801E001C0308B002030831603138C0094
:1010EC002430980090308312031398001930831623
:1010FC00031399000800803083120313AF063308E2
:10110C00F6003208F5003108F4003008F3002F081F
:10111C00FA002E08F9002D08F8002C08F7000A1226
:10112C008A1185230A128A15760883120313AF00DD
:10113C007508AE007408AD007308AC000800F70128
:10114C00F801731CAA28AB28B1287508F7070318F7
:10115C00F80A7608F80701300310F50DF60DFF3E7E
:10116C00031DB22801300310F40CF30CFF3E031DD9
:10117C00B92873087404031DC428C528A728780847
:10118C00F4007708F300080083120313A400A001F5
:10119C00A1017308F500F6017508A2007608A300FA
:1011AC00241CD928DA28E0282208A0070318A10A51
:1011BC002308A10701300310A20DA30DFF3E031D50
:1011CC00E1280310A40C2408031DED28EE28D628D2
:1011DC002108F4002008F3000800F600F701F801DC
:1011EC00F701F8010A2977087607F50075088400DD
:1011FC0000080A168A11E7270A128A150130F70728
:10120C000318F80A0030F8077808803AF5008030A7
:10121C007502031D13297408770203181629172960
:10122C00222977087607F5007508840083130008D7
:10123C00031D21292229F92808000A168A11F327EF
:10124C000A128A158316031391150A168A11F327AD
:10125C000A128A15831203138C1D3529362930295D
:10126C001308F500F6017508F7007608F8000A1661
:10127C008A11F3270A128A1573087404031D47296F
:10128C004B298316031391164E29831603139112BF
:10129C0011167808F4007708F30008002830831240
:1012AC00031394008316031391018312031326086E
:1012BC00AA002708AB002808AC002908AD000230B2
:1012CC000310AA0DAB0DAC0DAD0DFF3E031D662931
:1012DC002D08F6002C08F5002B08F4002A08F30062
:1012EC000030FA003D30F9000930F8000030F7000A
:1012FC000A128A1546220A128A157308FF3E8316B3
:10130C00031393008030940087150716080083128E
:10131C00031329082804270426040319962997295E
:10132C00DA29AF01AF0AA7290130AE000310A60DD0
:10133C00A70DA80DA90DAE0B9C290130AE002E08EF
:10134C00AF07A91FAA29AB299A2929082D02031D29
:10135C00B92928082C02031DB92927082B02031DC3
:10136C00B92926082A02031CBC29BD29CB29260829
:10137C00AA022708031C270FAB022808031C280FFE
:10138C00AC022908031C290FAD0201300310A90C73
:10139C00A80CA70CA60CFF3E031DCC290130AF02F4
:1013AC00031DD929DA29AB292D08A9002C08A8007E
:1013BC002B08A7002A08A60008000A168A11C127C4
:1013CC000A128A15D030F3000030F4000A128A1584
:1013DC003E200A128A156B30F3000030F4000A121A
:1013EC008A153E200A128A150130F3000030F400F1
:1013FC000A128A153E200A128A150A168A11CA2761
:10140C000A128A150A168A11C1270A128A15D030B7
:10141C00F3000030F4000A128A153E200A128A15D5
:10142C001930F3000030F4000A128A153E200A121B
:10143C008A150730F3000030F4000A128A153E209A
:10144C000A128A150030F300F4000A128A153E20A5
:10145C000A128A150030F300F4000A128A153E2095
:10146C000A128A150030F300F4000A128A153E2085
:10147C000A128A150A168A11CA270A128A15080036
:10148C00003083120313A4000030A3000030A2002C
:10149C000030A10076087504740473040319572AEC
:1014AC00582AA52AA501A50A682A0130A000031014
:1014BC00F30DF40DF50DF60DA00B5D2A0130A00017
:1014CC002008A507F61F6B2A6C2A5B2A0130A000A6
:1014DC000310A10DA20DA30DA40DA00B6E2A76086E
:1014EC007A02031D832A75087902031D832A740866
:1014FC007802031D832A73087702031C862A872A25
:10150C00962A7308F7027408031C740FF802750806
:10151C00031C750FF9027608031C760FFA022114CE
:10152C0001300310F60CF50CF40CF30CFF3E031D0C
:10153C00972A0130A502031DA42AA52A6C2A240887
:10154C00F6002308F5002208F4002108F300080037
:10155C00031083120313420D430DC4004408CA0048
:10156C004A08031DBA2ABB2AC42A0030C300003023
:10157C00C2000030C1000030C000292B4008C4005C
:10158C004108C5004208C6004308C7001F300310BD
:10159C00C70CC60CC50CC40CFF3E031DCD2A440859
:1015AC00C8004808C900C217FF30C005FF30C1058C
:1015BC00FF30C2050030C3059630CA02CA1FE72AA5
:1015CC00E82A022B4A08803A973E0318EE2AEF2AA3
:1015DC00F02ABB2A01300310C30CC20CC10CC00C86
:1015EC00FF3E031DF12A0130C4004408CA07031D45
:1015FC00002B012BF02A192B20304A02031C072B3D
:10160C00082B142BBB2A0130C4000310C00DC10DD4
:10161C00C20DC30DC40B0B2B0130CA024A08031DAB
:10162C00182B192B092B490803191D2B1E2B292BA1
:10163C00C009C109C209C309C00A0319C10A0319A7
:10164C00C20A0319C30A080083120313A00020085E
:10165C000319312B322B462BF61F352B362B462BF1
:10166C007309A2007409A3007509A4007609A500EA
:10167C00A20A0319A30A0319A40A0319A50A4E2BDB
:10168C007608A5007508A4007408A3007308A200CE
:10169C007608750474047304031D552B562B5F2BAD
:1016AC000030F6000030F5000030F4000030F3009C
:1016BC00E52B9630F7007708A100712B0130F7006D
:1016CC007708A10701300310A50CA40CA30CA20CE5
:1016DC00FF3E031D692BFE302505031D762B772B52
:1016EC00642B932B0130F7007708A1070130A20778
:1016FC00003003180130A307003003180130A40791
:10170C00003003180130A50701300310A50CA40C00
:10171C00A30CA20CFF3E031D8B2BFF302505031DD4
:10172C00982B992B782BA52B0130A1020130F700B7
:10173C000310A20DA30DA40DA50DF70B9E2BA41B3E
:10174C00A82BA92BAF2B023021020318AE2BAF2BE9
:10175C009A2B2118B22BB32BBB2BFF30A205FF30D9
:10176C00A3057F30A405FF30A5050310A10C2108AB
:10177C00F700F801F901FA0118300310F70DF80D14
:10178C00F90DFA0DFF3E031DC32B7708A204780850
:10179C00A3047908A4047A08A50420080319D72BFC
:1017AC00D82BDD2BF61FDB2BDC2BDD2BA51725080F
:1017BC00F6002408F5002308F4002208F3000800C2
:1017CC00A03083120313D0005008D9004E08F60045
:1017DC004D08F5004C08F4004B08F3000030FA00FB
:1017EC000030F9000030F8000030F7000A128A11BE
:1017FC004A270A128A150318042C052C292C2D3083
:10180C0083120313D00059088400500883138000FE
:10181C000130D0005008D9074E08F6004D08F500ED
:10182C004C08F4004B08F3000A168A11DC270A1244
:10183C008A15760883120313CE007508CD00740840
:10184C00CC007308CB00831203134E08C3004D0861
:10185C00C2004C08C1004B08C0000A128A15AE2207
:10186C000A128A15831203134308D8004208D700C2
:10187C004108D6004008D5005808F6005708F50076
:10188C005608F4005508F30000300A128A152A2372
:10189C000A128A15760883120313AF007508AE007E
:1018AC007408AD007308AC004E08B3004D08B200CC
:1018BC004C08B1004B08B0000A128A1581200A129C
:1018CC008A15831203132F08CE002E08CD002D0885
:1018DC00CC002C08CB004E08AD004D08AC004C08D9
:1018EC00AB004B08AA004930A9007430A800243082
:1018FC00A7000030A6000A128A1124200A128A15A9
:10190C00831203132908C3002808C2002708C1004A
:10191C002608C0000A128A15AE220A128A158312F2
:10192C0003134308D4004208D3004108D2004008F6
:10193C00D1002930D0005008B0005808B400570826
:10194C00B3005608B2005508B1005408B80053084B
:10195C00B7005208B6005108B50059080A128A158A
:10196C00B4250A128A15A03008000630831203131E
:10197C00DC001330DB00AD30DA00DA0BC32CDB0BF0
:10198C00C32CDC0BC32C0A128A155E200A128A1592
:10199C00003083120313A9000130A8008630A70081
:1019AC00A030A6000A128A1554210A128A150A12AE
:1019BC008A15E3210A128A15031083120313051CDE
:1019CC0003140318EA2CEE2C831203130514F12CC8
:1019DC00831203130510FD2C8601132D0130860094
:1019EC00132D02308600132D03308600132D600852
:1019FC00DA00DB015B08003A0319052D132D5A0898
:101A0C00003A0319F22C013A0319F42C033A031986
:101A1C00F72C013A0319FA2C132D61300A128A1192
:101A2C000D260A128A15831203136408CE0063086C
:101A3C00CD006208CC006108CB005D30DA005A089A
:101A4C00CF000A128A15E6230A128A158312031391
:101A5C00DB005B08DF000630DA005A08F4005F0890
:101A6C000A128A15F3200A128A1520300A168A11D6
:101A7C00E7270A128A150430613E8400831300089C
:101A8C0083120313CB00840A0008CC00840A0008DC
:101A9C00CD00840A0008CE005D30DA005A08CF0071
:101AAC000A128A15E6230A128A1583120313DB0025
:101ABC005B08DF000630DA005A08F4005F080A12EF
:101ACC008A15F3200A128A1520300A168A11E72784
:101ADC000A128A150830613E8400831300088312B1
:101AEC000313CB00840A0008CC00840A0008CD0044
:101AFC00840A0008CE005D30DA005A08CF000A12C2
:101B0C008A15E6230A128A1583120313DB005B087D
:101B1C00DF000630DA005A08F4005F080A128A1552
:101B2C00F3200A128A1520300A168A11E7270A12A6
:101B3C008A150A300A168A11E7270A128A15073005
:101B4C0083120313DB007C30DA00DA0BAB2DDB0BDA
:101B5C00AB2D0000E22C0A128A110C2883120313FD
:101B6C00C4003130B9003908BF00E92F25304906CF
:101B7C000319C12DC22DCE2D4908B900440884008B
:101B8C003908831380000130B9003908C407E92FE4
:101B9C00C501C601BE01300884000A128A15002056
:101BAC000A128A150A128A11EE270A128A15031CC8
:101BBC00E02DE12D212E83120313C501C6010A303D
:101BCC00F3000030F400831203134608F6004508B6
:101BDC00F5000A128A15A5200A128A1574088312B8
:101BEC000313C6007308C500300884000A128A1556
:101BFC0000200A128A15D03EB900FF3003180030BD
:101C0C00BA003908C5070318C60A3A08C6070130D6
:101C1C00B9003908B007300884000A128A15002070
:101C2C000A128A150A128A11EE270A128A1503184B
:101C3C00202E212EE52D83120313300884000A1266
:101C4C008A1500200A128A152E3A031D2E2E2F2ECD
:101C5C00732E0130B9003908B007C701C801622ED4
:101C6C000A30F3000030F400831203134808F60026
:101C7C004708F5000A128A15A5200A128A1574085D
:101C8C0083120313C8007308C700300884000A12BB
:101C9C008A1500200A128A15D03EB900FF300318AD
:101CAC000030BA003908C7070318C80A3A08C80731
:101CBC000130B9003908B007300884000A128A15BF
:101CCC0000200A128A150A128A11EE270A128A15A6
:101CDC000318712E722E362E7D2EC701C8017D2E53
:101CEC003E167D2EC030B9003908BE049C2E013042
:101CFC0083120313B007FF30300784000A128A15D1
:101D0C0000200A128A15C900B900BA013A08003A33
:101D1C000319912EE92F3908003A0319FB2F6C3A5D
:101D2C000319762E193A0319782EE92F3E1E9F2E91
:101D3C00A02EB32E3F08840083130008C000840A31
:101D4C000008C100840A0008C200840A0008C3000D
:101D5C000430B9003908BF07C52E3F08840083132F
:101D6C000008B900840A0008BA003908C0003A0813
:101D7C00C100C201C3010230B9003908BF074708CE
:101D8C004804031DCA2ECB2ED92E4308420441040D
:101D9C004004031DD22ED32ED92E0130C7070318B1
:101DAC00C80A0030C807C901C90A4908B90001307E
:101DBC000310B90DFF3E031DDE2E0310390D013E3D
:101DCC0084000A128A1500200A128A15BA000A1217
:101DDC008A1500200A128A15BB000A128A150020E7
:101DEC000A128A15BC000A128A1500200A128A15DA
:101DFC00BD003D084302031D0D2F3C084202031D8C
:101E0C000D2F3B084102031D0D2F3A084002031809
:101E1C00102F112F122F1C2F0130B9003908C907B0
:101E2C000A304906031D1B2F1C2FDB2E4808803A55
:101E3C00803C031D232F470849020318262F272F08
:101E4C002E2F831203134708B9003908C900462FF7
:101E5C00831203134808803AB90080303902031DFD
:101E6C00392F4908470203183C2F3D2F462F831268
:101E7C0003134908B900BA013908C7003A08C80069
:101E8C00831203134608803A803C031D4F2F4508EC
:101E9C0049020318522F532F5F2F83120313490843
:101EAC00B900BA013908C5023A08031CC603C602B8
:101EBC00632F83120313C501C60145084604031999
:101ECC00682F692FDB2F2030B900440884003908B3
:101EDC00831380000130B9003908C407FF30C507EF
:101EEC000318C60AFF30C60745084604031D7F2F9A
:101EFC00802F692FDB2F0030A9000030A8000030A4
:101F0C00A7000A30A6004708B90001300310B90D2C
:101F1C00FF3E031D8C2F0310390D013E84000A1265
:101F2C008A1500200A128A15F3000A128A1500205D
:101F3C000A128A15F4000A128A1500200A128A1550
:101F4C00F5000A128A1500200A128A15F6004308B9
:101F5C00FA004208F9004108F8004008F7000A129C
:101F6C008A1546220A128A15760883120313AD00CD
:101F7C007508AC007408AB007308AA000A128A1525
:101F8C008D210A128A15831203132608303EBA00DB
:101F9C003A08C9004908B900440884003908831379
:101FAC0080000130B9003908C407FF30C707031897
:101FBC00C80AFF30C807470A031DE82F480A031D4B
:101FCC00E82FE92F812F0130B007FF303007840054
:101FDC000A128A1500200A128A15B9003908C9009C
:101FEC004908031DFA2FFB2FBC2D440884008313D2
:041FFC008001080058
:102F720064008001840A0406031900340406BA2F8F
:102F82000A168A11F3270A168A11831603131114DB
:102F920008000A168A11F3270A168A1183160313E8
:102FA200111508000A168A11F3270A168A118316C8
:102FB200031391140800760875047404730403194A
:102FC200E32FE42FE62F8030F6060800F300831685
:102FD2000313981CED2FEE2FE82F730883120313AF
:102FE20099000800831603131419F82FF92FF32FF1
:0E2FF20011081F39031DFE2FFF2FF32F0800BB
:04400E00D420FF3F7C
:00000001FF
