:020000040000FA
:060000000A128A11FC2F18
:100D78000A128A11D8260A128A118316031311142B
:100D880008000A128A11D8260A128A118316031338
:100D9800111508000A128A11D8260A128A11700839
:100DA8008312031393000800831603131419DD2E0E
:100DB800DE2ED82E11081F39031DE32EE42ED82E5F
:100DC80008000A128A11D8260A128A1183160313F8
:100DD80091150A128A11D8260A128A11831203134E
:100DE8001308F200F3017208F4007308F5000A1200
:100DF8008A11D8260A128A1170087104031D052F5A
:100E0800092F8316031391160C2F831603139112BF
:100E180011167508F1007408F000080028308312D4
:100E280003139400831603139101831203132008FC
:100E3800A4002108A5002208A6002308A700023064
:100E48000310A40DA50DA60DA70DFF3E031D242F0D
:100E58002708F3002608F2002508F1002408F0000E
:100E68000030F7003D30F6000930F5000030F4009E
:100E78000A128A1196270A128A117008FF3E8316F1
:100E88000313930080309400871507160800831613
:100E98000313811318308700FF3086008801FF3064
:100EA8008312031388000030A3000130A2008630AB
:100EB800A100A030A0000A128A1112270A128A1172
:100EC8000A128A11BC260A128A112930F000003051
:100ED800F1000A128A11CE260A128A110030F00097
:100EE800F1000A128A11E5260A128A117008831283
:100EF800031388000A128A11C5260A128A110230C1
:100F080083120313AA000430A900B930A800A80B63
:100F18008B2FA90B8B2FAA0B8B2F922F642F0A12C2
:100F28008A1100280030FC000030FB000030FA0075
:100F38000030F90073087204710470040319A52FB6
:100F4800A62FF32FFD01FD0AB62F0130F80003107C
:100F5800F00DF10DF20DF30DF80BAB2F0130F80089
:100F68007808FD07F31FB92FBA2FA92F0130F80011
:100F78000310F90DFA0DFB0DFC0DF80BBC2F7308CF
:100F88007702031DD12F72087602031DD12F710835
:100F98007502031DD12F70087402031CD42FD52F9E
:100FA800E42F7008F4027108031C710FF50272082F
:100FB800031C720FF6027308031C730FF7027914EF
:100FC80001300310F30CF20CF10CF00CFF3E031D82
:100FD800E52F0130FD02031DF22FF32FBA2F7C08F5
:100FE800F3007B08F2007A08F1007908F0000800A5
:080FF80083010A128A114B2F3C
:04400E00D420FF3F7C
:00000001FF
