:020000040000FA
:060000000A128A110C280F
:10000800FE00030EF1000A08F2000A128A1178288D
:100018000A128A110F28F501F60183010A128A11C2
:1000280015280A128A1154200A128A112E288312BE
:1000380003138601442801308312031386004428E1
:1000480002308312031386004428033083120313FB
:10005800860044287508F300F4017408003A03196F
:10006800362844287308003A03191B28013A031953
:100078001F28033A03192428013A03192928442878
:1000880076088312031399000730F4007D30F300DB
:10009800F30B4C28F40B4C282E280A128A110C2832
:1000A8008316031385018601D830870088018901EA
:1000B80083160317880189018312031385018601BA
:1000C8008801F601F501C0308B0020308316031338
:1000D8008C00243098009030831203139800193054
:1000E8008316031399000800831203138C1E7D28BE
:1000F8007E2883281A08F0007008F5008C12720810
:0C0108008A00710E8300FE0E7E0E0900BE
:04400E00D420FF3F7C
:00000001FF
