:020000040000FA
:060000000A128A11FC2F18
:100E8A0083120313850186010130870088018316C6
:100E9A000317880189010730831603138500860129
:100EAA008701880108000A128A1145270A128A1145
:100EBA00842F051C612F622F842F0630F200133015
:100ECA00F100AD30F000F00B682FF10B682FF20B38
:100EDA00682F6F2F02308312031387000630F20047
:100EEA001330F100AD30F000F00B792FF10B792FB0
:100EFA00F20B792F802F0430831203138700831299
:100F0A0003130718892F8A2F5E2F071A8D2F8E2F0A
:100F1A00842F871A912F922F842F851C952F962F15
:100F2A00C42F0608031D9A2F9B2FAB2F0130860072
:100F3A000630F2001330F100AD30F000F00BA32FB1
:100F4A00F10BA32FF20BA32FAA2FC42F8030060672
:100F5A00031DB02FB12FB32F113087000608F00000
:100F6A00700786000630F2001330F100AD30F00051
:100F7A00F00BBD2FF10BBD2FF20BBD2FC42F831227
:100F8A000313051DC92FCA2F842F0808031DCE2F4E
:100F9A00CF2FDF2F013088000630F2001330F10026
:100FAA00AD30F000F00BD72FF10BD72FF20BD72F64
:100FBA00DE2F842F80300806031DE42FE52FE72F4C
:100FCA00213087000808F000700788000630F20018
:100FDA001330F100AD30F000F00BF12FF10BF12FCF
:100FEA00F20BF12FF82F842F0A128A11002883019D
:060FFA000A128A11582FB3
:04400E00D73FFF3F5A
:00000001FF
