:020000040000FA
:060000000A128A110C280F
:10000800FE00030EF1000A08F2000A128A111628EF
:100018000A128A110F28F501F601F70183010A1265
:100028008A116928831203130C1F1B281C282C28EB
:100038001F03031D2028212827281E08F000700808
:10004800F6000C132C281E08F0007008F5000C139D
:100058008C1C2F2830283E281F03031D34283528E0
:100068003A2805309F008C1091013E2801309F00EE
:100078008C10382872088A00710E8300FE0E7E0EDE
:100088000900F701FF3083160313850086018701F5
:10009800880103308316031788008901831203132C
:1000A8008801C0308B004230831603138C00013066
:1000B800831203139F00831603139F01FF309200DE
:1000C800163083120313920008000A128A11452081
:1000D8000A128A111A30F400F830F300F30B722870
:1000E800F40B72280000831203139F187C287D28C4
:1000F8007E289F1476088600750887006E280A12E5
:040108008A110C2824
:04400E00D72CFF3F6D
:00000001FF
