:020000040000FA
:060000000A128A110C280F
:10000800FE00030EF1000A08F2000A128A11202CE1
:100018000A128A110F28FA0183120313CD01CE01A7
:1000280083010A128A11792A83120313B400283033
:10003800AC002C08AF00892925303706031925287C
:10004800262832283708AC00340884002C0883138B
:1000580080000130AC002C08B4078929B501B6012D
:10006800B101270884000A128A110A220A128A1189
:100078000A128A11F5240A128A11031C44284528F9
:10008800852883120313B501B6010A30F300003046
:10009800F400831203133608F6003508F5000A1237
:1000A8008A119C240A128A11740883120313B60059
:1000B8007308B500270884000A128A110A220A1256
:1000C8008A11D03EAC00FF3003180030AD002C0878
:1000D800B5070318B60A2D08B6070130AC002C087E
:1000E800A707270884000A128A110A220A128A110D
:1000F8000A128A11F5240A128A11031884288528FD
:100108004928013083120313A707FF30270784000B
:100118000A128A110A220A128A11B700AC00AD012C
:100128002D08003A0319992889292C08003A03193F
:100138009B29643A0319A4280D3A0319A42889298C
:100148002F08840083130008B200840A0008B30053
:100158000230AC002C08AF07B31FB328B428BD2861
:100168000330AC002C08B104B209B309B20A031970
:10017800B30AB701B70A3708AC002C07013E840060
:100188000A128A110A220A128A11AD000A128A1169
:100198000A220A128A11AE002E083302031DD6283D
:1001A8002D0832020318D928DA28DB28E52801307F
:1001B800AC002C08B70705303706031DE428E528EE
:1001C800BF28350836040319EA28EB28F728310830
:1001D80003390319F028F128F728FF30B507031869
:1001E800B60AFF30B6073608803A803C031DFE2861
:1001F800350837020318012902290E29831203132F
:100208003708AC00AD012C08B5022D08031CB60355
:10021800B602122983120313B501B6013508360454
:100228000319172918292F292030AC003408840015
:100238002C08831380000130AC002C08B407FF3071
:10024800B5070318B60AFF30B60735083604031D8C
:100258002E292F291829310803390319342935295A
:1002680040292D30AC00340884002C08831380000A
:100278000130AC002C08B4073708AC002C08B000DB
:1002880080290A30A3000030A4003008AC002C07F5
:10029800013E84000A128A110A220A128A11F30006
:1002A8000A128A110A220A128A11F4003308F60087
:1002B8003208F5000A128A11D5220A128A11740826
:1002C80083120313A6007308A5000A128A11E423F7
:1002D8000A128A11831203132308303EAD002D0839
:1002E800B7003708AC00340884002C08831380005A
:1002F8000130AC002C08B407FF30AC002C08B00764
:10030800300A031D8829892945290130A707FF30AC
:10031800270784000A128A110A220A128A11AC00DD
:100328002C08B7003708031D9A299B292028340870
:0803380084008313800108001A
:10040000FF1B0A2A83137F1883170008840A031925
:10041000FF0A080002308A000408840A82070034B8
:10042000013400340A34003464340034E8340334D2
:10043000103427347734773477342E3465346C3481
:1004400065346334743472346F3453346F346D34C0
:1004500065342E3463346F346D3400344C3443349B
:10046000443420344C34693462347234613472342C
:100470007934203466346F34723400345634313475
:1004800020342034563432342034203443344F3432
:100490004E345434003444346534763465346C342A
:1004A0006F34703465346434203442347934003429
:1004B00065346C3465346334743472346F3453345B
:1004C0006F346D346534003420342534333469346A
:1004D00020342034203425343334693400344D340E
:1004E00050344C344134423420345834433438345A
:1004F00000340A128A114F240A128A110A128A1130
:1005000061230A128A11F701F70A01300A128A11CF
:1005100076240A128A112F30F7008030F8000A1270
:100520008A111B230A128A11F701F70A02300A12F4
:100530008A1176240A128A11553083120313B800E7
:100540003808A7004E08B900BA013908A8003A08CF
:10055000A9004D08BB00BC013B08AA003C08AB0049
:100560003D300A128A1118200A128A113D30F70014
:100570000030F8000A128A111B230A128A111A305D
:1005800083120313B900F730B800B80BC52AB90BB2
:10059000C52ACA2A831203139F18CF2AD02A832A76
:1005A0009F14832A0A128A110C2883120313A101B3
:1005B000A201730874040319DE2ADF2A162BA00196
:1005C000A00AED2A01300310F30DF40DFF3E031DC8
:1005D000E32A0130F7007708A007F41FF02AF12A78
:1005E000E22A01300310A10DA20DFF3E031DF22AE5
:1005F00074087602031DFE2A73087502031C012B82
:10060000022B092B7308F5027408031CF603F6028B
:10061000211401300310F40CF30CFF3E031D0A2BD0
:100620000130A002031D152B162BF12A2208F4001D
:100630002108F300080083120313A301A401442B33
:1006400023087707A1007808A0000318A00AA31FB9
:100650002A2BA003831203132008A2002208FF0004
:10066000210884000A128A1100220A128A110A1231
:100670008A11C1240A128A11013083120313A307BD
:100680000318A40A0030A40723087707A1007808FC
:10069000A0000318A00AA31F4E2BA003831203136C
:1006A0002008A2002208FF00210884000A128A11F3
:1006B00000220A128A11003A031D5F2B602B202BA7
:1006C000080000300A128A11A6230A128A11343057
:1006D000F800F130F700F70B6B2BF80B6B2B702B3E
:1006E00003300A128A11DB240A128A110D30F80035
:1006F000FB30F700F70B7A2BF80B7A2B7F2B0330AC
:100700000A128A11DB240A128A111D30F800913076
:10071000F700F70B892BF80B892B03300A128A118B
:10072000DB240A128A1138300A128A11DB240A12D9
:100730008A110C300A128A11DB240A128A1106303F
:100740000A128A11DB240A128A110800F300731CB2
:10075000AA2BAB2BAF2B831203130814B22B8312DB
:1007600003130810F31CB52BB62BB82B8814B92B28
:100770008810731DBC2BBD2BBF2B0815C02B081177
:10078000F31DC32BC42BC62B8815C72B8811731ED2
:10079000CA2BCB2BCD2B0816CE2B0812F31ED12B38
:1007A000D22BD42B8816D52B8812731FD82BD92B7C
:1007B000DB2B0817DC2B0813F31FDF2BE02BE22BBE
:1007C0008817E32B881308008312031323082404DB
:1007D0000319EB2BEC2B1B2CF901F90AFA2B013036
:1007E0000310A30DA40DFF3E031DF02B0130F800F4
:1007F0007808F907A41FFD2BFE2BEF2B24082602F7
:10080000031D042C23082502031C072C082C0E2C86
:100810002308A5022408031CA603A6020130031026
:10082000A40CA30CFF3E031D0F2C0130F902031D85
:100830001A2C1B2CFE2B2608A4002508A300080058
:10084000831203130C1F252C262C362C1F03031D8B
:100850002A2C2B2C312C1E08F0007008CE000C1313
:10086000362C1E08F0007008CD000C138C1C392C9F
:100870003A2C482C1F03031D3E2C3F2C442C0530E2
:100880009F008C109101482C01309F008C10422C4D
:1008900072088A00710E8300FE0E7E0E090083121C
:1008A0000313CE01CD01FF308316031385008701AA
:1008B0008801890103308316031788008901831298
:1008C00003138801C0308B004230831603138C0061
:1008D0000130831203139F00831603139F01FF301F
:1008E0009200163083120313920008008312031340
:1008F000A0002003031D7D2C7E2C8A2C77087F3ED0
:10090000F8007808A10021080A128A11DB240A12D3
:100910008A119B2C02302006031D8F2C902C9B2CBF
:100920007708BF3EF8007808A10021080A128A1152
:10093000DB240A128A110800F701F801731CA12CAC
:10094000A22CA82C7508F7070318F80A7608F807F0
:1009500001300310F50DF60DFF3E031DA92C0130EB
:100960000310F40CF30CFF3E031DB02C7308740449
:10097000031DBB2CBC2C9E2C7808F4007708F300D8
:100980000800F60083120313891476080A128A11EC
:10099000A6230A128A118312031309150B30F500DE
:1009A0006230F400F40BD22CF50BD22C0000831231
:1009B000031309110800F600831203138910760847
:1009C0000A128A11A6230A128A1183120313091527
:1009D0000B30F5006230F400F40BEC2CF50BEC2C32
:1009E00000008312031309110800F400F3013A30E8
:1009F00074020318FC2CFD2C052D30307402031CEE
:0E0A0000022D032D052DF301F30A730C0800DF
:04400E00D72CFF3F6D
:00000001FF
