:020000040000FA
:060000000A128A110C280F
:10000800FE00030EF2000A08F3000A128A11C02A41
:100018000A128A110F28F90183120313CA01CB01AE
:10002800CC01CD0183010A128A116C2983120313B2
:10003800B6002A30AE002E08B200D2282530370686
:1000480003192728282834283708AE0036088400E2
:100058002E08831380000130AE002E08B607D22880
:10006800B1013B28C030AE002E08B104552801303C
:10007800A907FF30290784000A128A1100210A12F1
:100088008A11B700AE00AF012F08003A03194D28B6
:10009800D2282E08003A0319E428753A031936289D
:1000A800D2283208840083130008B300840A0008A9
:1000B800B4000230AE002E08B207B701B70A3708FD
:1000C800AE002E07013E84000A128A1100210A128E
:1000D8008A11AF000A128A1100210A128A11B0008F
:1000E80030083402031D7A282F08330203187D28AC
:1000F8007E287F2889280130AE002E08B7070530F2
:100108003706031D8828892863283708AE002E087B
:10011800B500C9280A30A3000030A4003508AE0095
:100128002E07013E84000A128A1100210A128A1140
:10013800F4000A128A1100210A128A11F500340803
:10014800F7003308F6000A128A1100220A128A11EF
:10015800750883120313A6007408A5000A128A11F1
:1001680084220A128A11831203132308303EAF0037
:100178002F08B7003708AE00360884002E0883130E
:1001880080000130AE002E08B607FF30AE002E0802
:10019800B507350A031DD128D2288E280130A907B2
:1001A800FF30290784000A128A1100210A128A11D5
:1001B800AE002E08B7003708031DE328E4282228DC
:0A01C800360884008313800108004C
:1002000001308A000408840A820700340134003473
:100210000A34003464340034E834033410342734AE
:100220007734773477342E3465346C346534633402
:10023000743472346F3453346F346D3465342E3407
:1002400063346F346D3400344C34433444342034DC
:100250004C34693462347234613472347934203409
:1002600066346F34723400345634313420342034E0
:10027000563432342034203443344F344E345434E2
:10028000003444346534763465346C346F347034FF
:1002900065346434203442347934003465346C3449
:1002A00065346334743472346F3453346F346D3462
:1002B000653400344D3450344C34413442342034AD
:1002C00058344334383400342534753420342034E1
:1002D00020342534753400340A128A11F5220A12AA
:1002E0008A110A128A11B6210A128A11F801F80A33
:1002F00001300A128A1147230A128A112F300A127A
:100300008A111E230A128A11F801F80A02300A1211
:100310008A1147230A128A115F3083120313B8002F
:100320003808A9004D08AB004C08AA004B08AD00E6
:100330004A08AC003A300A128A111A200A128A11AD
:100340001A3083120313B900F730B800B80BA6298E
:10035000B90BA629AB29831203139F18B029B12921
:1003600076299F1476290A128A110C2800300A1265
:100370008A1146220A128A11343083120313A10013
:10038000F130A000A00BC229A10BC22903300A1230
:100390008A1187230A128A110D3083120313A100D8
:1003A000FB30A000A00BD229A10BD22903300A12E6
:1003B0008A1187230A128A111D3083120313A100A8
:1003C0009030A000A00BE229A10BE229000003302D
:1003D0000A128A1187230A128A1138300A128A11E6
:1003E00087230A128A110C300A128A1187230A12F3
:1003F0008A1106300A128A1187230A128A1108000C
:1004000083120313A001A101740875040319092ABA
:100410000A2A412AA201A20A182A01300310F40D67
:10042000F50DFF3E031D0E2A0130F8007808A207E3
:10043000F51F1B2A1C2A0D2A01300310A00DA10D47
:10044000FF3E031D1D2A75087702031D292A740823
:100450007602031C2C2A2D2A342A7408F602750809
:10046000031CF703F702201401300310F50CF40C01
:10047000FF3E031D352A0130A202031D402A412AF6
:100480001C2A2108F5002008F4000800F400741C60
:100490004A2A4B2A4F2A831203130814522A831222
:1004A00003130810F41C552A562A582A8814592A6E
:1004B0008810741D5C2A5D2A5F2A0815602A0811BD
:1004C000F41D632A642A662A8815672A8811741E17
:1004D0006A2A6B2A6D2A08166E2A0812F41E712ADF
:1004E000722A742A8816752A8812741F782A792A23
:1004F0007B2A08177C2A0813F41F7F2A802A822A65
:100500008817832A881308008312031323082404FE
:1005100003198B2A8C2ABB2AA801A80A9A2A01301F
:100520000310A30DA40DFF3E031D902A0130A70068
:100530002708A807A41F9D2A9E2A8F2A240826027E
:10054000031DA42A23082502031CA72AA82AAE2AD1
:100550002308A5022408031CA603A60201300310E9
:10056000A40CA30CFF3E031DAF2A0130A802031DFB
:10057000BA2ABB2A9E2A2608A4002508A300080040
:10058000831203130C1FC52AC62ADC2A1F03031D6E
:10059000CA2ACB2AD42A1E08F000F1017008CC0028
:1005A0007108CD000C13DC2A1E08F000F101700860
:1005B000CA007108CB000C138C1CDF2AE02AEE2A3B
:1005C0001F03031DE42AE52AEA2A05309F008C1048
:1005D0009101EE2A01309F008C10E82A73088A00EE
:1005E000720E8300FE0E7E0E090083120313CC01EF
:1005F000CD01CA01CB01FF308316031385008701AB
:10060000880189010330831603178800890183124A
:1006100003138801C0308B004230831603138C0013
:100620000130831203139F00831603139F01FF30D1
:1006300092001630831203139200080083120313F2
:10064000A200A001A101392B2008220784000A1270
:100650008A1100210A128A110A128A116D230A12C4
:100660008A11013083120313A0070318A10A003076
:10067000A1072008220784000A128A1100210A1209
:100680008A11003A031D452B462B242B08008312A8
:100690000313A1002103031D4E2B4F2B5B2B780866
:1006A0007F3EA0002008A20022080A128A11872398
:1006B0000A128A116C2B02302106031D602B612B5C
:1006C0006C2B7808BF3EA0002008A20022080A1266
:1006D0008A1187230A128A110800F7008312031374
:1006E000891477080A128A1146220A128A11831283
:1006F000031309150B30F6006230F500F50B7E2B65
:10070000F60B7E2B00008312031309110800F7007B
:1007100083120313891077080A128A1146220A12DB
:100720008A118312031309150B30F6006230F500AD
:10073000F50B982BF60B982B00008312031309116D
:020740000800AF
:04400E00D72CFF3F6D
:00000001FF
