:020000040000FA
:060000000A128A110C280F
:10000800FE00030EF0000A08F1000A128A118B2E76
:100018000A128A110F28FA01FB0183120313D40173
:10002800D501D601D701D801D901DA01DB01830155
:100038000A128A11A72983120313B7002730AF00C9
:100048002F08B200902925303A0603192C282D28AC
:1000580039283A08AF00370884002F088313800036
:100068000130AF002F08B7079029B801B901B401D2
:10007800260884000A128A1110240A128A110A1208
:100088008A1179260A128A11031C4B284C288C28BD
:1000980083120313B801B9010A30F2000030F300EB
:1000A800831203133908F5003808F4000A128A117C
:1000B800D3250A128A11730883120313B900720830
:1000C800B800260884000A128A1110240A128A111C
:1000D800D03EAF00FF3003180030B0002F08B8073B
:1000E8000318B90A3008B9070130AF002F08A6076E
:1000F800260884000A128A1110240A128A110A1288
:100108008A1179260A128A1103188B288C285028FC
:10011800013083120313A607FF30260784000A1252
:100128008A1110240A128A11BA00AF00B0013008EF
:10013800003A0319A02890292F08003A0319A22988
:10014800643A0319AB280D3A0319AB2890293208F1
:10015800840083130008B500840A0008B600023042
:10016800AF002F08B207B61FBA28BB28C42803302F
:10017800AF002F08B404B509B609B50A0319B60AC1
:10018800BA01BA0A3A08AF002F07013E84000A12E2
:100198008A1110240A128A11B0000A128A11102436
:1001A8000A128A11B10031083602031DDD28300811
:1001B80035020318E028E128E228EC280130AF00D6
:1001C8002F08BA0705303A06031DEB28EC28C62885
:1001D800380839040319F128F228FE2834080339AD
:1001E8000319F728F828FE28FF30B8070318B90ABA
:1001F800FF30B9073908803A803C031D05293808C3
:100208003A020318082909291529831203133A0801
:10021800AF00B0012F08B8023008031CB903B902B7
:10022800192983120313B801B901380839040319CD
:100238001E291F2936292030AF00370884002F08CF
:10024800831380000130AF002F08B707FF30B807CD
:100258000318B90AFF30B90738083904031D3529CE
:1002680036291F293408033903193B293C29472912
:100278002D30AF00370884002F0883138000013029
:10028800AF002F08B7073A08AF002F08B300872937
:100298000A30A0000030A1003308AF002F07013E4C
:1002A80084000A128A1110240A128A11F2000A1212
:1002B8008A1110240A128A11F3003608F50035084D
:1002C800F4000A128A11D1240A128A1173088312BF
:1002D8000313A3007208A2000A128A1197250A12B2
:1002E8008A11831203132008303EB0003008BA0088
:1002F8003A08AF00370884002F08831380000130C4
:10030800AF002F08B707FF30AF002F08B307330A35
:10031800031D8F2990294C290130A607FF30260795
:1003280084000A128A1110240A128A11AF002F08B9
:10033800BA003A08031DA129A229272837088400F2
:100348008313800108000A128A1166260A128A118C
:100358000A128A118C240A128A11F201F301F4019B
:1003680020300A128A1150260A128A11003083128C
:100378000313AA000030A9002530A8008030A70088
:100388000A128A118C220A128A11F601F60A013021
:100398000A128A11F8250A128A113330F6008030C1
:1003A800F7000A128A1115250A128A1183120313FB
:1003B800061000300A128A11B5260A128A110A128A
:1003C8008A11A5260A128A1183120313BB003B085F
:1003D800DB000614FB305B02031CF329F429032A13
:1003E8000530BB003B08D700D601192A0130BB00F5
:1003F8003B08D7075B08CE3EBB003B08DB0032302A
:100408005B020318082A092AFA29132A0130BB00BB
:100418003B08D6075B08FB3EBB003B08DB0005300A
:100428005B020318182A192A0A2A8610FF300A12B2
:100438008A11B5260A128A110A128A11A5260A12E9
:100448008A1183120313BB003B08DA0086145A088A
:100458000A128A1199260A128A11831203130611A5
:1004680064300A128A11B5260A128A110A128A11F0
:10047800A5260A128A1183120313BB003B08D90070
:10048800061559080A128A1199260A128A11F601C4
:10049800F60A02300A128A11F8250A128A110B305C
:1004A80083120313BB003B08A6005708BC00BD011C
:1004B8003C08A7003D08A8005608BE00BF013E083A
:1004C800A9003F08AA005A08C000C1014008AB00B3
:1004D8004108AC005908C200C3014208AD004308F6
:1004E800AE0044300A128A111F200A128A114430C1
:1004F800F6000030F7000A128A1115250A128A112F
:1005080083120313D701D601DA290A128A110C289B
:10051800831203132708AB002808AC002908AD0094
:100528002A08AE0006300310AB0DAC0DAD0DAE0DB4
:10053800FF3E031D972A2E08F5002D08F4002C080D
:10054800F3002B08F2002708AF002808B00029089C
:10055800B1002A08B20006300310AF0DB00DB10D7E
:10056800B20DFF3E031DB02A0030B3001230B400B4
:100578007A30B5000030B6002F08B3023008031CEB
:10058800300FC72AC82AB4023108031C310FCD2AFC
:10059800CE2AB5023208031C320FD32AD42AB60257
:1005A8003608F9003508F8003408F7003308F60073
:1005B8000A128A1169230A128A1173088312031313
:1005C800B8007208B700013038020030031937024A
:1005D800031CEF2AF02A4C2B2708AB002808AC0094
:1005E8002908AD002A08AE0004300310AB0DAC0D8D
:1005F800AD0DAE0DFF3E031DF92A2E08F5002D089E
:10060800F4002C08F3002B08F2002708AF00280894
:10061800B0002908B1002A08B20004300310AF0D59
:10062800B00DB10DB20DFF3E031D122B0030B3000B
:100638001230B4007A30B5000030B6002F08B3028B
:100648003008031C300F292B2A2BB4023108031C55
:10065800310F2F2B302BB5023208031C320F352BEC
:10066800362BB6023608F9003508F8003408F700CA
:100678003308F6000A128A1169230A128A117308CC
:1006880083120313B8007208B700831603131815F2
:100698000130831238020030031937020318552B32
:1006A800562B682B370883160313990018128312E8
:1006B8000313981783160313871707178312031357
:1006C8001816831603139816080083120313A20141
:1006D800F51F6F2B702B7D2BF209F309F409F5092F
:1006E800F20A0319F30A0319F40A0319F50AA20115
:1006F800A20AF91F802B812B902BF609F709F8091C
:10070800F909F60A0319F70A0319F80A0319F90A85
:100718000130A0002008A2060030A6000030A50085
:100728000030A4000030A300750874047304720438
:1007380003199F2BA02BED2BA101A10AB02B01308F
:10074800A0000310F20DF30DF40DF50DA00BA52B71
:100758000130A0002008A107F51FB32BB42BA32B51
:100768000130A0000310A30DA40DA50DA60DA00B2C
:10077800B62B75087902031DCB2B74087802031D6C
:10078800CB2B73087702031DCB2B72087602031C50
:10079800CE2BCF2BDE2B7208F6027308031C730FC7
:1007A800F7027408031C740FF8027508031C750F10
:1007B800F902231401300310F50CF40CF30CF20CBD
:1007C800FF3E031DDF2B0130A102031DEC2BED2B97
:1007D800B42B22080319F12BF22BFD2BA309A40932
:1007E800A509A609A30A0319A40A0319A50A031946
:1007F800A60A2608F5002508F4002408F3002308B3
:10080800F2000800FF1B102C83137F1883170008C1
:10081800840A0319FF0A080004308A000408840ABD
:1008280082070034013400340A340034643400345C
:10083800E8340334103427342534313469342E3401
:100848002534313469345634203420342534333453
:100858006934203420342534333469344334003443
:100868007734773477342E3465346C3465346334B4
:10087800743472346F3453346F346D3465342E34B9
:1008880063346F346D340034413444344334203499
:100898002034203443344F344E34543420342034FC
:1008A800543445344D34503400344C344334443497
:1008B80020344C346934623472346134723479349B
:1008C800203466346F3472340034443465347634FA
:1008D80065346C346F347034653464342034423495
:1008E8007934003465346C34653463347434723468
:1008F8006F3453346F346D34653400344D345034B0
:100908004C3441344234203458344334383400347D
:1009180000300A128A1159250A128A113430F70058
:10092800F130F600F60B962CF70B962C9B2C033027
:100938000A128A1136260A128A110D30F700FB3086
:10094800F600F60BA52CF70BA52CAA2C03300A12DF
:100958008A1136260A128A111D30F7009130F600E6
:10096800F60BB42CF70BB42C03300A128A11362676
:100978000A128A1138300A128A1136260A128A1186
:100988000C300A128A1136260A128A1106300A1207
:100998008A1136260A128A110800F701F80172082E
:1009A80073040319D82CD92C102DF901F90AE72C56
:1009B80001300310F20DF30DFF3E031DDD2C013055
:1009C800F6007608F907F31FEA2CEB2CDC2C013033
:1009D8000310F70DF80DFF3E031DEC2C730875028C
:1009E800031DF82C72087402031CFB2CFC2C032D2D
:1009F8007208F4027308031CF503F502771401303A
:100A08000310F30CF20CFF3E031D042D0130F90214
:100A1800031D0F2D102DEB2C7808F3007708F2003A
:100A28000800F801F9013A2D78087607A10077083F
:100A3800A0000318A00AF81F222DA0038312031395
:100A48002008A2002208FF00210884000A128A1147
:100A580006240A128A110A128A111C260A128A11FD
:100A68000130F8070318F90A0030F9077808760703
:100A780083120313A1007708A0000318A00AF81F27
:100A8800462DA003831203132008A2002208FF00AA
:100A9800210884000A128A1106240A128A11003ACF
:100AA800031D572D582D182D0800F200721C5D2DBE
:100AB8005E2D622D831203130814652D8312031310
:100AC8000810F21C682D692D6B2D88146C2D881068
:100AD800721D6F2D702D722D0815732D0811F21DC2
:100AE800762D772D792D88157A2D8811721E7D2DFA
:100AF8007E2D802D0816812D0812F21E842D852D3D
:100B0800872D8816882D8812721F8B2D8C2D8E2D7F
:100B180008178F2D0813F21F922D932D952D8817E6
:100B2800962D881308008312031320082104031943
:100B38009E2D9F2DCE2DA501A50AAD2D01300310A8
:100B4800A00DA10DFF3E031DA32D0130A400240814
:100B5800A507A11FB02DB12DA22D21082302031D29
:100B6800B72D20082202031CBA2DBB2DC12D200849
:100B7800A2022108031CA303A30201300310A10C45
:100B8800A00CFF3E031DC22D0130A502031DCD2D73
:100B9800CE2DB12D2308A1002208A0000800F601DF
:100BA800F701721CD82DD92DDF2D7408F60703180C
:100BB800F70A7508F70701300310F40DF50DFF3E2D
:100BC800031DE02D01300310F30CF20CFF3E031D52
:100BD800E72D72087304031DF22DF32DD52D770828
:100BE800F3007608F2000800F8007803031DFD2DD5
:100BF800FE2D0A2E76087F3EF7007708F90079085F
:100C08000A128A1136260A128A111B2E0230780619
:100C1800031D0F2E102E1B2E7608BF3EF7007708F7
:100C2800F90079080A128A1136260A128A11080070
:100C3800F50083120313891475080A128A115925BD
:100C48000A128A118312031309150B30F40062305B
:100C5800F300F30B2D2EF40B2D2E0000831203133B
:100C680009110800F50083120313891075080A1288
:100C78008A1159250A128A118312031309150B3098
:100C8800F4006230F300F30B472EF40B472E0000FC
:100C98008312031309110800F50083160313871242
:100CA800751D572E582E5C2E740894008715602EDB
:100CB800720874049400871175087304831203136F
:100CC80094000800831603138501860188018901B1
:100CD8008316031788018901C0308B008312031320
:100CE80085010F30860088010800F300F2013A30D0
:100CF80073020318802E812E892E30307302031C54
:100D0800862E872E892EF201F20A720C08008312B1
:100D180003138C1D902E912E922E8C1171088A002F
:100D2800700E8300FE0E7E0E0900F2008316031378
:100D3800981C9F2EA02E9A2E7208831203139900D6
:100D480008000A128A11AE260A128A1183120313A6
:100D58001308080083160313141CB32EB42EAE2EEA
:0E0D68000800F20072088312031393000800C3
:04400E00D420FF3F7C
:00000001FF
