:020000040000FA
:060000000A128A110C280F
:10000800FE00030EF2000A08F3000A128A111528EE
:100018000A128A110F28F801F90183010A128A11BC
:100028005928831203130C1F1A281B2820280C1385
:100038001E08F1007108F9008C1D23282428332894
:100048008C110A128A1186200A128A11F10071088D
:10005800F80079080A128A119E200A128A11730878
:100068008A00720E8300FE0E7E0E09002130831670
:100078000313850086018801013083160317880061
:100088008901C0308B004030831603138C00413047
:10009800831203139F00831603139F018312031314
:1000A800850186018701880108000A128A113A2011
:1000B8000A128A11F401F501F60124300A128A1194
:1000C80070200A128A110A128A118F200A128A11C4
:1000D80067280A128A110C28F7008316031387125F
:1000E800771D772878287C2876089400871580283B
:1000F8007408760494008711770875048312031333
:10010800940008000A128A1197200A128A11831291
:10011800031313080800831203139F1894289528C3
:1001280096289F14080083160313141C9C289D28E6
:1001380097280800F0007008831203139300080042
:04400E00D420FF3F7C
:00000001FF
