:020000040000FA
:060000000A128A110C280F
:10000800FE00030EF1000A08F2000A128A114628BF
:100018000A128A110F28F30183010A128A1134285F
:10002800013083160313850086018701880101309A
:100038008316031788008901C0308B00403083166F
:1000480003138C004130831203139F00831603139C
:100058009F01831203138501860187018801080027
:100068000A128A1114200A128A110A128A115820B7
:100078000A128A11730883120313880039280A1296
:100088008A110C28831203130C1F4B284C28512863
:100098000C131E08F0007008F30072088A00710E35
:1000A8008300FE0E7E0E0900831203139F185D283D
:0800B8005E285F289F14080078
:04400E00D120FF3F7F
:00000001FF
