:020000040000FA
:060000000A128A110C280F
:10000800FE00030EF1000A08F2000A128A11942871
:100018000A128A110F28F801F901FA0183010A125C
:100028008A11CB28F50059283F3083120313880022
:100038009328063083120313880093285B308312B9
:100048000313880093284F308312031388009328E2
:10005800663083120313880093286D3083120313CC
:10006800880093287D3083120313880093287F30FB
:1000780083120313880093286F30831203138800B8
:10008800932877308312031388009328393083121A
:100098000313880093287930831203138800932868
:1000A800713083120313880093287508F300F40154
:1000B8007408003A0319612893287308003A031951
:1000C8001828013A03191D28033A03192228013A6E
:1000D80003192728073A03192C28013A031931284C
:1000E800033A03193628013A031931280F3A03193C
:1000F8003B28013A03194028033A03194528013AD5
:1001080003193B28073A03194A28013A0319182802
:10011800033A03194F28013A031954289328080071
:10012800831203130C1F99289A28A1281E08F0008F
:100138007008FA000C1327309F000B1CA428A52870
:10014800B528061CA828A928AE280130F000700898
:1001580085070B10861CB128B228B5280130850206
:100168000B108C1CB828B928C428071DBC28BD282A
:10017800C128071187158C10C428871107158C1002
:1001880072088A00710E8300FE0E7E0E09000A12A4
:100198008A1100210A128A11831203139F148312F1
:1001A8000313071DD828D928E4287A080F39F60040
:1001B8007608F90079080A128A1116200A128A119B
:1001C80083120313871DE928EA28D3287A08F60042
:1001D80004300310F60CFF3E031DED287608F700E7
:1001E8007708F80078080A128A1116200A128A116C
:1001F800D3280A128A110C28FA01831603138501E1
:100208000B308600870188018316031788010230A6
:10021800890083120313850186018701FF30880056
:10022800C8308B004230831603138C00FF309200D5
:100238000330960080309F002530831203139F00FF
:06024800063092000800E0
:04400E00D720FF3F79
:00000001FF
